{
  "contractName": "TracabiliteAgricoleMaroc",
  "abi": [
    {
      "inputs": [],
      "stateMutability": "nonpayable",
      "type": "constructor"
    },
    {
      "anonymous": false,
      "inputs": [
        {
          "indexed": false,
          "internalType": "string",
          "name": "idProduit",
          "type": "string"
        },
        {
          "indexed": false,
          "internalType": "string",
          "name": "operation",
          "type": "string"
        }
      ],
      "name": "EtapeAjoutee",
      "type": "event"
    },
    {
      "anonymous": false,
      "inputs": [
        {
          "indexed": false,
          "internalType": "string",
          "name": "id",
          "type": "string"
        },
        {
          "indexed": false,
          "internalType": "string",
          "name": "nom",
          "type": "string"
        },
        {
          "indexed": false,
          "internalType": "string",
          "name": "region",
          "type": "string"
        }
      ],
      "name": "ProducteurAjoute",
      "type": "event"
    },
    {
      "anonymous": false,
      "inputs": [
        {
          "indexed": false,
          "internalType": "string",
          "name": "id",
          "type": "string"
        },
        {
          "indexed": false,
          "internalType": "string",
          "name": "nom",
          "type": "string"
        },
        {
          "indexed": false,
          "internalType": "string",
          "name": "idProducteur",
          "type": "string"
        }
      ],
      "name": "ProduitEnregistre",
      "type": "event"
    },
    {
      "inputs": [
        {
          "internalType": "string",
          "name": "",
          "type": "string"
        },
        {
          "internalType": "uint256",
          "name": "",
          "type": "uint256"
        }
      ],
      "name": "etapesProduit",
      "outputs": [
        {
          "internalType": "uint256",
          "name": "date",
          "type": "uint256"
        },
        {
          "internalType": "string",
          "name": "operation",
          "type": "string"
        },
        {
          "internalType": "string",
          "name": "operateur",
          "type": "string"
        },
        {
          "internalType": "string",
          "name": "lieu",
          "type": "string"
        }
      ],
      "stateMutability": "view",
      "type": "function",
      "constant": true
    },
    {
      "inputs": [
        {
          "internalType": "string",
          "name": "",
          "type": "string"
        }
      ],
      "name": "producteurs",
      "outputs": [
        {
          "internalType": "string",
          "name": "id",
          "type": "string"
        },
        {
          "internalType": "string",
          "name": "nom",
          "type": "string"
        },
        {
          "internalType": "string",
          "name": "region",
          "type": "string"
        },
        {
          "internalType": "bool",
          "name": "estVerifie",
          "type": "bool"
        }
      ],
      "stateMutability": "view",
      "type": "function",
      "constant": true
    },
    {
      "inputs": [
        {
          "internalType": "string",
          "name": "",
          "type": "string"
        }
      ],
      "name": "produits",
      "outputs": [
        {
          "internalType": "string",
          "name": "id",
          "type": "string"
        },
        {
          "internalType": "string",
          "name": "nom",
          "type": "string"
        },
        {
          "internalType": "string",
          "name": "idProducteur",
          "type": "string"
        },
        {
          "internalType": "string",
          "name": "region",
          "type": "string"
        },
        {
          "internalType": "uint256",
          "name": "dateRecolte",
          "type": "uint256"
        },
        {
          "internalType": "bool",
          "name": "estBio",
          "type": "bool"
        }
      ],
      "stateMutability": "view",
      "type": "function",
      "constant": true
    },
    {
      "inputs": [],
      "name": "proprietaire",
      "outputs": [
        {
          "internalType": "address",
          "name": "",
          "type": "address"
        }
      ],
      "stateMutability": "view",
      "type": "function",
      "constant": true
    },
    {
      "inputs": [
        {
          "internalType": "string",
          "name": "_id",
          "type": "string"
        },
        {
          "internalType": "string",
          "name": "_nom",
          "type": "string"
        },
        {
          "internalType": "string",
          "name": "_region",
          "type": "string"
        }
      ],
      "name": "ajouterProducteur",
      "outputs": [],
      "stateMutability": "nonpayable",
      "type": "function"
    },
    {
      "inputs": [
        {
          "internalType": "string",
          "name": "_id",
          "type": "string"
        }
      ],
      "name": "verifierProducteur",
      "outputs": [],
      "stateMutability": "nonpayable",
      "type": "function"
    },
    {
      "inputs": [
        {
          "internalType": "string",
          "name": "_id",
          "type": "string"
        },
        {
          "internalType": "string",
          "name": "_nom",
          "type": "string"
        },
        {
          "internalType": "string",
          "name": "_idProducteur",
          "type": "string"
        },
        {
          "internalType": "string",
          "name": "_region",
          "type": "string"
        },
        {
          "internalType": "bool",
          "name": "_estBio",
          "type": "bool"
        }
      ],
      "name": "enregistrerProduit",
      "outputs": [],
      "stateMutability": "nonpayable",
      "type": "function"
    },
    {
      "inputs": [
        {
          "internalType": "string",
          "name": "_idProduit",
          "type": "string"
        },
        {
          "internalType": "string",
          "name": "_operation",
          "type": "string"
        },
        {
          "internalType": "string",
          "name": "_operateur",
          "type": "string"
        },
        {
          "internalType": "string",
          "name": "_lieu",
          "type": "string"
        }
      ],
      "name": "ajouterEtape",
      "outputs": [],
      "stateMutability": "nonpayable",
      "type": "function"
    },
    {
      "inputs": [
        {
          "internalType": "string",
          "name": "_id",
          "type": "string"
        }
      ],
      "name": "obtenirProducteur",
      "outputs": [
        {
          "components": [
            {
              "internalType": "string",
              "name": "id",
              "type": "string"
            },
            {
              "internalType": "string",
              "name": "nom",
              "type": "string"
            },
            {
              "internalType": "string",
              "name": "region",
              "type": "string"
            },
            {
              "internalType": "bool",
              "name": "estVerifie",
              "type": "bool"
            }
          ],
          "internalType": "struct TracabiliteAgricoleMaroc.Producteur",
          "name": "",
          "type": "tuple"
        }
      ],
      "stateMutability": "view",
      "type": "function",
      "constant": true
    },
    {
      "inputs": [
        {
          "internalType": "string",
          "name": "_id",
          "type": "string"
        }
      ],
      "name": "obtenirProduit",
      "outputs": [
        {
          "components": [
            {
              "internalType": "string",
              "name": "id",
              "type": "string"
            },
            {
              "internalType": "string",
              "name": "nom",
              "type": "string"
            },
            {
              "internalType": "string",
              "name": "idProducteur",
              "type": "string"
            },
            {
              "internalType": "string",
              "name": "region",
              "type": "string"
            },
            {
              "internalType": "uint256",
              "name": "dateRecolte",
              "type": "uint256"
            },
            {
              "internalType": "bool",
              "name": "estBio",
              "type": "bool"
            }
          ],
          "internalType": "struct TracabiliteAgricoleMaroc.Produit",
          "name": "",
          "type": "tuple"
        }
      ],
      "stateMutability": "view",
      "type": "function",
      "constant": true
    },
    {
      "inputs": [
        {
          "internalType": "string",
          "name": "_idProduit",
          "type": "string"
        }
      ],
      "name": "nombreEtapes",
      "outputs": [
        {
          "internalType": "uint256",
          "name": "",
          "type": "uint256"
        }
      ],
      "stateMutability": "view",
      "type": "function",
      "constant": true
    },
    {
      "inputs": [
        {
          "internalType": "string",
          "name": "_idProduit",
          "type": "string"
        },
        {
          "internalType": "uint256",
          "name": "_index",
          "type": "uint256"
        }
      ],
      "name": "obtenirEtape",
      "outputs": [
        {
          "components": [
            {
              "internalType": "uint256",
              "name": "date",
              "type": "uint256"
            },
            {
              "internalType": "string",
              "name": "operation",
              "type": "string"
            },
            {
              "internalType": "string",
              "name": "operateur",
              "type": "string"
            },
            {
              "internalType": "string",
              "name": "lieu",
              "type": "string"
            }
          ],
          "internalType": "struct TracabiliteAgricoleMaroc.Etape",
          "name": "",
          "type": "tuple"
        }
      ],
      "stateMutability": "view",
      "type": "function",
      "constant": true
    },
    {
      "inputs": [
        {
          "internalType": "string",
          "name": "_idProduit",
          "type": "string"
        }
      ],
      "name": "verifierAuthenticiteProduit",
      "outputs": [
        {
          "internalType": "bool",
          "name": "estAuthentique",
          "type": "bool"
        },
        {
          "components": [
            {
              "internalType": "string",
              "name": "id",
              "type": "string"
            },
            {
              "internalType": "string",
              "name": "nom",
              "type": "string"
            },
            {
              "internalType": "string",
              "name": "region",
              "type": "string"
            },
            {
              "internalType": "bool",
              "name": "estVerifie",
              "type": "bool"
            }
          ],
          "internalType": "struct TracabiliteAgricoleMaroc.Producteur",
          "name": "producteur",
          "type": "tuple"
        },
        {
          "internalType": "uint256",
          "name": "nombreEtapesTotal",
          "type": "uint256"
        }
      ],
      "stateMutability": "view",
      "type": "function",
      "constant": true
    }
  ],
  "bytecode": "0x608060405234801561001057600080fd5b5033600360006101000a81548173ffffffffffffffffffffffffffffffffffffffff021916908373ffffffffffffffffffffffffffffffffffffffff160217905550612bc0806100616000396000f3fe608060405234801561001057600080fd5b50600436106100cf5760003560e01c806384a422281161008c578063a25553d511610066578063a25553d514610266578063a3713ecb14610282578063a4ff5dc41461029e578063fa9a19f3146102d3576100cf565b806384a42228146101ea578063872afe811461021a578063976296a31461024a576100cf565b8063328d4958146100d45780634db93f48146101045780634df0fd061461013657806367e19d6b146101695780636d8f9c911461019957806379583ee5146101cc575b600080fd5b6100ee60048036038101906100e99190611ef9565b6102ef565b6040516100fb91906128df565b60405180910390f35b61011e60048036038101906101199190611ef9565b610567565b60405161012d93929190612645565b60405180910390f35b610150600480360381019061014b919061216b565b610923565b604051610160949392919061293e565b60405180910390f35b610183600480360381019061017e9190611ef9565b610b1e565b6040516101909190612901565b60405180910390f35b6101b360048036038101906101ae9190611ef9565b610e33565b6040516101c39493929190612706565b60405180910390f35b6101d461101e565b6040516101e1919061262a565b60405180910390f35b61020460048036038101906101ff919061216b565b611044565b60405161021191906128bd565b60405180910390f35b610234600480360381019061022f9190611ef9565b6112e6565b6040516102419190612923565b60405180910390f35b610264600480360381019061025f9190611f3a565b611311565b005b610280600480360381019061027b9190612094565b61147c565b005b61029c60048036038101906102979190611fd1565b6117ff565b005b6102b860048036038101906102b39190611ef9565b61197f565b6040516102ca96959493929190612760565b60405180910390f35b6102ed60048036038101906102e89190611ef9565b611bfe565b005b6102f7611d3a565b600080836040516103089190612613565b9081526020016040518091039020600001805461032490612abb565b905011610366576040517f08c379a000000000000000000000000000000000000000000000000000000000815260040161035d9061287d565b60405180910390fd5b6000826040516103769190612613565b908152602001604051809103902060405180608001604052908160008201805461039f90612abb565b80601f01602080910402602001604051908101604052809291908181526020018280546103cb90612abb565b80156104185780601f106103ed57610100808354040283529160200191610418565b820191906000526020600020905b8154815290600101906020018083116103fb57829003601f168201915b5050505050815260200160018201805461043190612abb565b80601f016020809104026020016040519081016040528092919081815260200182805461045d90612abb565b80156104aa5780601f1061047f576101008083540402835291602001916104aa565b820191906000526020600020905b81548152906001019060200180831161048d57829003601f168201915b505050505081526020016002820180546104c390612abb565b80601f01602080910402602001604051908101604052809291908181526020018280546104ef90612abb565b801561053c5780601f106105115761010080835404028352916020019161053c565b820191906000526020600020905b81548152906001019060200180831161051f57829003601f168201915b505050505081526020016003820160009054906101000a900460ff1615151515815250509050919050565b6000610571611d3a565b6000806001856040516105849190612613565b908152602001604051809103902060000180546105a090612abb565b90501415610608576000604051806080016040528060405180602001604052806000815250815260200160405180602001604052806000815250815260200160405180602001604052806000815250815260200160001515815250600092509250925061091c565b600060018560405161061a9190612613565b9081526020016040518091039020600201805461063690612abb565b80601f016020809104026020016040519081016040528092919081815260200182805461066290612abb565b80156106af5780601f10610684576101008083540402835291602001916106af565b820191906000526020600020905b81548152906001019060200180831161069257829003601f168201915b50505050509050600080826040516106c79190612613565b90815260200160405180910390206040518060800160405290816000820180546106f090612abb565b80601f016020809104026020016040519081016040528092919081815260200182805461071c90612abb565b80156107695780601f1061073e57610100808354040283529160200191610769565b820191906000526020600020905b81548152906001019060200180831161074c57829003601f168201915b5050505050815260200160018201805461078290612abb565b80601f01602080910402602001604051908101604052809291908181526020018280546107ae90612abb565b80156107fb5780601f106107d0576101008083540402835291602001916107fb565b820191906000526020600020905b8154815290600101906020018083116107de57829003601f168201915b5050505050815260200160028201805461081490612abb565b80601f016020809104026020016040519081016040528092919081815260200182805461084090612abb565b801561088d5780601f106108625761010080835404028352916020019161088d565b820191906000526020600020905b81548152906001019060200180831161087057829003601f168201915b505050505081526020016003820160009054906101000a900460ff161515151581525050905080606001516108ee576000816002886040516108cf9190612613565b908152602001604051809103902080549050945094509450505061091c565b6001816002886040516109019190612613565b90815260200160405180910390208054905094509450945050505b9193909250565b600282805160208101820180518482526020830160208501208183528095505050505050818154811061095557600080fd5b90600052602060002090600402016000915091505080600001549080600101805461097f90612abb565b80601f01602080910402602001604051908101604052809291908181526020018280546109ab90612abb565b80156109f85780601f106109cd576101008083540402835291602001916109f8565b820191906000526020600020905b8154815290600101906020018083116109db57829003601f168201915b505050505090806002018054610a0d90612abb565b80601f0160208091040260200160405190810160405280929190818152602001828054610a3990612abb565b8015610a865780601f10610a5b57610100808354040283529160200191610a86565b820191906000526020600020905b815481529060010190602001808311610a6957829003601f168201915b505050505090806003018054610a9b90612abb565b80601f0160208091040260200160405190810160405280929190818152602001828054610ac790612abb565b8015610b145780601f10610ae957610100808354040283529160200191610b14565b820191906000526020600020905b815481529060010190602001808311610af757829003601f168201915b5050505050905084565b610b26611d64565b6000600183604051610b389190612613565b90815260200160405180910390206000018054610b5490612abb565b905011610b96576040517f08c379a0000000000000000000000000000000000000000000000000000000008152600401610b8d906127fd565b60405180910390fd5b600182604051610ba69190612613565b90815260200160405180910390206040518060c0016040529081600082018054610bcf90612abb565b80601f0160208091040260200160405190810160405280929190818152602001828054610bfb90612abb565b8015610c485780601f10610c1d57610100808354040283529160200191610c48565b820191906000526020600020905b815481529060010190602001808311610c2b57829003601f168201915b50505050508152602001600182018054610c6190612abb565b80601f0160208091040260200160405190810160405280929190818152602001828054610c8d90612abb565b8015610cda5780601f10610caf57610100808354040283529160200191610cda565b820191906000526020600020905b815481529060010190602001808311610cbd57829003601f168201915b50505050508152602001600282018054610cf390612abb565b80601f0160208091040260200160405190810160405280929190818152602001828054610d1f90612abb565b8015610d6c5780601f10610d4157610100808354040283529160200191610d6c565b820191906000526020600020905b815481529060010190602001808311610d4f57829003601f168201915b50505050508152602001600382018054610d8590612abb565b80601f0160208091040260200160405190810160405280929190818152602001828054610db190612abb565b8015610dfe5780601f10610dd357610100808354040283529160200191610dfe565b820191906000526020600020905b815481529060010190602001808311610de157829003601f168201915b50505050508152602001600482015481526020016005820160009054906101000a900460ff1615151515815250509050919050565b600081805160208101820180518482526020830160208501208183528095505050505050600091509050806000018054610e6c90612abb565b80601f0160208091040260200160405190810160405280929190818152602001828054610e9890612abb565b8015610ee55780601f10610eba57610100808354040283529160200191610ee5565b820191906000526020600020905b815481529060010190602001808311610ec857829003601f168201915b505050505090806001018054610efa90612abb565b80601f0160208091040260200160405190810160405280929190818152602001828054610f2690612abb565b8015610f735780601f10610f4857610100808354040283529160200191610f73565b820191906000526020600020905b815481529060010190602001808311610f5657829003601f168201915b505050505090806002018054610f8890612abb565b80601f0160208091040260200160405190810160405280929190818152602001828054610fb490612abb565b80156110015780601f10610fd657610100808354040283529160200191611001565b820191906000526020600020905b815481529060010190602001808311610fe457829003601f168201915b5050505050908060030160009054906101000a900460ff16905084565b600360009054906101000a900473ffffffffffffffffffffffffffffffffffffffff1681565b61104c611d9c565b60028360405161105c9190612613565b90815260200160405180910390208054905082106110af576040517f08c379a00000000000000000000000000000000000000000000000000000000081526004016110a69061289d565b60405180910390fd5b6002836040516110bf9190612613565b90815260200160405180910390208281548110611105577f4e487b7100000000000000000000000000000000000000000000000000000000600052603260045260246000fd5b90600052602060002090600402016040518060800160405290816000820154815260200160018201805461113890612abb565b80601f016020809104026020016040519081016040528092919081815260200182805461116490612abb565b80156111b15780601f10611186576101008083540402835291602001916111b1565b820191906000526020600020905b81548152906001019060200180831161119457829003601f168201915b505050505081526020016002820180546111ca90612abb565b80601f01602080910402602001604051908101604052809291908181526020018280546111f690612abb565b80156112435780601f1061121857610100808354040283529160200191611243565b820191906000526020600020905b81548152906001019060200180831161122657829003601f168201915b5050505050815260200160038201805461125c90612abb565b80601f016020809104026020016040519081016040528092919081815260200182805461128890612abb565b80156112d55780601f106112aa576101008083540402835291602001916112d5565b820191906000526020600020905b8154815290600101906020018083116112b857829003601f168201915b505050505081525050905092915050565b60006002826040516112f89190612613565b9081526020016040518091039020805490509050919050565b600080846040516113229190612613565b9081526020016040518091039020600001805461133e90612abb565b905014611380576040517f08c379a00000000000000000000000000000000000000000000000000000000081526004016113779061281d565b60405180910390fd5b6040518060800160405280848152602001838152602001828152602001600015158152506000846040516113b49190612613565b908152602001604051809103902060008201518160000190805190602001906113de929190611dc4565b5060208201518160010190805190602001906113fb929190611dc4565b506040820151816002019080519060200190611418929190611dc4565b5060608201518160030160006101000a81548160ff0219169083151502179055509050507f0aa364f7c2ae62630f6c9a962dcc47a944847f82950a5cc1fd643daed746752a83838360405161146f939291906126ba565b60405180910390a1505050565b6000808460405161148d9190612613565b908152602001604051809103902060000180546114a990612abb565b9050116114eb576040517f08c379a00000000000000000000000000000000000000000000000000000000081526004016114e29061287d565b60405180910390fd5b6000836040516114fb9190612613565b908152602001604051809103902060030160009054906101000a900460ff16611559576040517f08c379a0000000000000000000000000000000000000000000000000000000008152600401611550906127dd565b60405180910390fd5b600060018660405161156b9190612613565b9081526020016040518091039020600001805461158790612abb565b9050146115c9576040517f08c379a00000000000000000000000000000000000000000000000000000000081526004016115c09061283d565b60405180910390fd5b6040518060c001604052808681526020018581526020018481526020018381526020014281526020018215158152506001866040516116089190612613565b90815260200160405180910390206000820151816000019080519060200190611632929190611dc4565b50602082015181600101908051906020019061164f929190611dc4565b50604082015181600201908051906020019061166c929190611dc4565b506060820151816003019080519060200190611689929190611dc4565b506080820151816004015560a08201518160050160006101000a81548160ff021916908315150217905550905050600060405180608001604052804281526020016040518060400160405280600781526020017f5265636f6c74650000000000000000000000000000000000000000000000000081525081526020018581526020018481525090506002866040516117219190612613565b908152602001604051809103902081908060018154018082558091505060019003906000526020600020906004020160009091909190915060008201518160000155602082015181600101908051906020019061177f929190611dc4565b50604082015181600201908051906020019061179c929190611dc4565b5060608201518160030190805190602001906117b9929190611dc4565b5050507f51f5e7f43312324bb6665d27232e8ce42781180cc0cb038779eecd78c693f9858686866040516117ef939291906126ba565b60405180910390a1505050505050565b60006001856040516118119190612613565b9081526020016040518091039020600001805461182d90612abb565b90501161186f576040517f08c379a0000000000000000000000000000000000000000000000000000000008152600401611866906127fd565b60405180910390fd5b600060405180608001604052804281526020018581526020018481526020018381525090506002856040516118a49190612613565b9081526020016040518091039020819080600181540180825580915050600190039060005260206000209060040201600090919091909150600082015181600001556020820151816001019080519060200190611902929190611dc4565b50604082015181600201908051906020019061191f929190611dc4565b50606082015181600301908051906020019061193c929190611dc4565b5050507f6f81c19ce885ffe8b423507b9bebaca88041beaeed093188dd82f6bb96da61318585604051611970929190612683565b60405180910390a15050505050565b6001818051602081018201805184825260208301602085012081835280955050505050506000915090508060000180546119b890612abb565b80601f01602080910402602001604051908101604052809291908181526020018280546119e490612abb565b8015611a315780601f10611a0657610100808354040283529160200191611a31565b820191906000526020600020905b815481529060010190602001808311611a1457829003601f168201915b505050505090806001018054611a4690612abb565b80601f0160208091040260200160405190810160405280929190818152602001828054611a7290612abb565b8015611abf5780601f10611a9457610100808354040283529160200191611abf565b820191906000526020600020905b815481529060010190602001808311611aa257829003601f168201915b505050505090806002018054611ad490612abb565b80601f0160208091040260200160405190810160405280929190818152602001828054611b0090612abb565b8015611b4d5780601f10611b2257610100808354040283529160200191611b4d565b820191906000526020600020905b815481529060010190602001808311611b3057829003601f168201915b505050505090806003018054611b6290612abb565b80601f0160208091040260200160405190810160405280929190818152602001828054611b8e90612abb565b8015611bdb5780601f10611bb057610100808354040283529160200191611bdb565b820191906000526020600020905b815481529060010190602001808311611bbe57829003601f168201915b5050505050908060040154908060050160009054906101000a900460ff16905086565b600360009054906101000a900473ffffffffffffffffffffffffffffffffffffffff1673ffffffffffffffffffffffffffffffffffffffff163373ffffffffffffffffffffffffffffffffffffffff1614611c8e576040517f08c379a0000000000000000000000000000000000000000000000000000000008152600401611c859061285d565b60405180910390fd5b60008082604051611c9f9190612613565b90815260200160405180910390206000018054611cbb90612abb565b905011611cfd576040517f08c379a0000000000000000000000000000000000000000000000000000000008152600401611cf49061287d565b60405180910390fd5b6001600082604051611d0f9190612613565b908152602001604051809103902060030160006101000a81548160ff02191690831515021790555050565b60405180608001604052806060815260200160608152602001606081526020016000151581525090565b6040518060c0016040528060608152602001606081526020016060815260200160608152602001600081526020016000151581525090565b6040518060800160405280600081526020016060815260200160608152602001606081525090565b828054611dd090612abb565b90600052602060002090601f016020900481019282611df25760008555611e39565b82601f10611e0b57805160ff1916838001178555611e39565b82800160010185558215611e39579182015b82811115611e38578251825591602001919060010190611e1d565b5b509050611e469190611e4a565b5090565b5b80821115611e63576000816000905550600101611e4b565b5090565b6000611e7a611e75846129c9565b612998565b905082815260208101848484011115611e9257600080fd5b611e9d848285612a79565b509392505050565b600081359050611eb481612b5c565b92915050565b600082601f830112611ecb57600080fd5b8135611edb848260208601611e67565b91505092915050565b600081359050611ef381612b73565b92915050565b600060208284031215611f0b57600080fd5b600082013567ffffffffffffffff811115611f2557600080fd5b611f3184828501611eba565b91505092915050565b600080600060608486031215611f4f57600080fd5b600084013567ffffffffffffffff811115611f6957600080fd5b611f7586828701611eba565b935050602084013567ffffffffffffffff811115611f9257600080fd5b611f9e86828701611eba565b925050604084013567ffffffffffffffff811115611fbb57600080fd5b611fc786828701611eba565b9150509250925092565b60008060008060808587031215611fe757600080fd5b600085013567ffffffffffffffff81111561200157600080fd5b61200d87828801611eba565b945050602085013567ffffffffffffffff81111561202a57600080fd5b61203687828801611eba565b935050604085013567ffffffffffffffff81111561205357600080fd5b61205f87828801611eba565b925050606085013567ffffffffffffffff81111561207c57600080fd5b61208887828801611eba565b91505092959194509250565b600080600080600060a086880312156120ac57600080fd5b600086013567ffffffffffffffff8111156120c657600080fd5b6120d288828901611eba565b955050602086013567ffffffffffffffff8111156120ef57600080fd5b6120fb88828901611eba565b945050604086013567ffffffffffffffff81111561211857600080fd5b61212488828901611eba565b935050606086013567ffffffffffffffff81111561214157600080fd5b61214d88828901611eba565b925050608061215e88828901611ea5565b9150509295509295909350565b6000806040838503121561217e57600080fd5b600083013567ffffffffffffffff81111561219857600080fd5b6121a485828601611eba565b92505060206121b585828601611ee4565b9150509250929050565b6121c881612a31565b82525050565b6121d781612a43565b82525050565b6121e681612a43565b82525050565b60006121f7826129f9565b6122018185612a04565b9350612211818560208601612a88565b61221a81612b4b565b840191505092915050565b6000612230826129f9565b61223a8185612a15565b935061224a818560208601612a88565b61225381612b4b565b840191505092915050565b6000612269826129f9565b6122738185612a26565b9350612283818560208601612a88565b80840191505092915050565b600061229c601683612a15565b91507f50726f64756374657572206e6f6e2076657269666965000000000000000000006000830152602082019050919050565b60006122dc601283612a15565b91507f50726f6475697420696e6578697374616e7400000000000000000000000000006000830152602082019050919050565b600061231c601983612a15565b91507f43652070726f64756374657572206578697374652064656a61000000000000006000830152602082019050919050565b600061235c601683612a15565b91507f43652070726f64756974206578697374652064656a61000000000000000000006000830152602082019050919050565b600061239c603183612a15565b91507f5365756c206c652070726f70726965746169726520706575742065786563757460008301527f657220636574746520666f6e6374696f6e0000000000000000000000000000006020830152604082019050919050565b6000612402601583612a15565b91507f50726f6475637465757220696e6578697374616e7400000000000000000000006000830152602082019050919050565b6000612442601183612a15565b91507f457461706520696e6578697374616e74650000000000000000000000000000006000830152602082019050919050565b600060808301600083015161248d60008601826125f5565b50602083015184820360208601526124a582826121ec565b915050604083015184820360408601526124bf82826121ec565b915050606083015184820360608601526124d982826121ec565b9150508091505092915050565b6000608083016000830151848203600086015261250382826121ec565b9150506020830151848203602086015261251d82826121ec565b9150506040830151848203604086015261253782826121ec565b915050606083015161254c60608601826121ce565b508091505092915050565b600060c083016000830151848203600086015261257482826121ec565b9150506020830151848203602086015261258e82826121ec565b915050604083015184820360408601526125a882826121ec565b915050606083015184820360608601526125c282826121ec565b91505060808301516125d760808601826125f5565b5060a08301516125ea60a08601826121ce565b508091505092915050565b6125fe81612a6f565b82525050565b61260d81612a6f565b82525050565b600061261f828461225e565b915081905092915050565b600060208201905061263f60008301846121bf565b92915050565b600060608201905061265a60008301866121dd565b818103602083015261266c81856124e6565b905061267b6040830184612604565b949350505050565b6000604082019050818103600083015261269d8185612225565b905081810360208301526126b18184612225565b90509392505050565b600060608201905081810360008301526126d48186612225565b905081810360208301526126e88185612225565b905081810360408301526126fc8184612225565b9050949350505050565b600060808201905081810360008301526127208187612225565b905081810360208301526127348186612225565b905081810360408301526127488185612225565b905061275760608301846121dd565b95945050505050565b600060c082019050818103600083015261277a8189612225565b9050818103602083015261278e8188612225565b905081810360408301526127a28187612225565b905081810360608301526127b68186612225565b90506127c56080830185612604565b6127d260a08301846121dd565b979650505050505050565b600060208201905081810360008301526127f68161228f565b9050919050565b60006020820190508181036000830152612816816122cf565b9050919050565b600060208201905081810360008301526128368161230f565b9050919050565b600060208201905081810360008301526128568161234f565b9050919050565b600060208201905081810360008301526128768161238f565b9050919050565b60006020820190508181036000830152612896816123f5565b9050919050565b600060208201905081810360008301526128b681612435565b9050919050565b600060208201905081810360008301526128d78184612475565b905092915050565b600060208201905081810360008301526128f981846124e6565b905092915050565b6000602082019050818103600083015261291b8184612557565b905092915050565b60006020820190506129386000830184612604565b92915050565b60006080820190506129536000830187612604565b81810360208301526129658186612225565b905081810360408301526129798185612225565b9050818103606083015261298d8184612225565b905095945050505050565b6000604051905081810181811067ffffffffffffffff821117156129bf576129be612b1c565b5b8060405250919050565b600067ffffffffffffffff8211156129e4576129e3612b1c565b5b601f19601f8301169050602081019050919050565b600081519050919050565b600082825260208201905092915050565b600082825260208201905092915050565b600081905092915050565b6000612a3c82612a4f565b9050919050565b60008115159050919050565b600073ffffffffffffffffffffffffffffffffffffffff82169050919050565b6000819050919050565b82818337600083830152505050565b60005b83811015612aa6578082015181840152602081019050612a8b565b83811115612ab5576000848401525b50505050565b60006002820490506001821680612ad357607f821691505b60208210811415612ae757612ae6612aed565b5b50919050565b7f4e487b7100000000000000000000000000000000000000000000000000000000600052602260045260246000fd5b7f4e487b7100000000000000000000000000000000000000000000000000000000600052604160045260246000fd5b6000601f19601f8301169050919050565b612b6581612a43565b8114612b7057600080fd5b50565b612b7c81612a6f565b8114612b8757600080fd5b5056fea264697066735822122005733193f42ed7009eb7c1d689519ebd25282020040d49318dca52086d0115ef64736f6c63430008000033",
  "immutableReferences": {},
  "source": "// SPDX-License-Identifier: MIT\r\npragma solidity ^0.8.0;\r\n\r\n/**\r\n * @title TracabiliteAgricoleMaroc\r\n * @dev Systme simplifi de traabilit des produits agricoles marocains\r\n */\r\ncontract TracabiliteAgricoleMaroc {\r\n    \r\n    // Structure pour les producteurs\r\n    struct Producteur {\r\n        string id;              // CIN ou numro d'identification\r\n        string nom;             // Nom du producteur\r\n        string region;          // Rgion d'origine\r\n        bool estVerifie;        // Vrification officielle\r\n    }\r\n    \r\n    // Structure pour les produits agricoles\r\n    struct Produit {\r\n        string id;              // Identifiant unique du produit (code-barres, QR code)\r\n        string nom;             // Nom du produit (ex: Huile d'argan, Safran)\r\n        string idProducteur;    // ID du producteur\r\n        string region;          // Rgion de production\r\n        uint dateRecolte;       // Date de rcolte (timestamp)\r\n        bool estBio;            // Si le produit est biologique\r\n    }\r\n    \r\n    // Structure pour les tapes de la chane d'approvisionnement\r\n    struct Etape {\r\n        uint date;              // Date de l'opration\r\n        string operation;       // Type d'opration (Rcolte, Transformation, etc.)\r\n        string operateur;       // Qui a effectu l'opration\r\n        string lieu;            // Lieu de l'opration\r\n    }\r\n    \r\n    // Mappages pour stocker les donnes\r\n    mapping(string => Producteur) public producteurs;\r\n    mapping(string => Produit) public produits;\r\n    mapping(string => Etape[]) public etapesProduit;\r\n    \r\n    // Adresse du propritaire du contrat\r\n    address public proprietaire;\r\n    \r\n    // vnements pour surveiller les actions importantes\r\n    event ProducteurAjoute(string id, string nom, string region);\r\n    event ProduitEnregistre(string id, string nom, string idProducteur);\r\n    event EtapeAjoutee(string idProduit, string operation);\r\n    \r\n    // Modificateur pour limiter certaines fonctions au propritaire\r\n    modifier seulementProprietaire() {\r\n        require(msg.sender == proprietaire, \"Seul le proprietaire peut executer cette fonction\");\r\n        _;\r\n    }\r\n    \r\n    // Constructeur\r\n    constructor() {\r\n        proprietaire = msg.sender;\r\n    }\r\n    \r\n    /**\r\n     * @dev Ajoute un nouveau producteur au systme\r\n     * @param _id Identifiant du producteur\r\n     * @param _nom Nom du producteur\r\n     * @param _region Rgion d'origine\r\n     */\r\n    function ajouterProducteur(string memory _id, string memory _nom, string memory _region) public {\r\n        // Vrifier que le producteur n'existe pas dj\r\n        require(bytes(producteurs[_id].id).length == 0, \"Ce producteur existe deja\");\r\n        \r\n        // Crer et stocker le nouveau producteur\r\n        producteurs[_id] = Producteur({\r\n            id: _id,\r\n            nom: _nom,\r\n            region: _region,\r\n            estVerifie: false\r\n        });\r\n        \r\n        emit ProducteurAjoute(_id, _nom, _region);\r\n    }\r\n    \r\n    /**\r\n     * @dev Vrifie un producteur (rserv au propritaire)\r\n     * @param _id Identifiant du producteur\r\n     */\r\n    function verifierProducteur(string memory _id) public seulementProprietaire {\r\n        // Vrifier que le producteur existe\r\n        require(bytes(producteurs[_id].id).length > 0, \"Producteur inexistant\");\r\n        \r\n        // Marquer le producteur comme vrifi\r\n        producteurs[_id].estVerifie = true;\r\n    }\r\n    \r\n    /**\r\n     * @dev Enregistre un nouveau produit\r\n     * @param _id Identifiant du produit\r\n     * @param _nom Nom du produit\r\n     * @param _idProducteur ID du producteur\r\n     * @param _region Rgion de production\r\n     * @param _estBio Si le produit est biologique\r\n     */\r\n    function enregistrerProduit(\r\n        string memory _id, \r\n        string memory _nom, \r\n        string memory _idProducteur, \r\n        string memory _region, \r\n        bool _estBio\r\n    ) public {\r\n        // Vrifier que le producteur existe et est vrifi\r\n        require(bytes(producteurs[_idProducteur].id).length > 0, \"Producteur inexistant\");\r\n        require(producteurs[_idProducteur].estVerifie, \"Producteur non verifie\");\r\n        \r\n        // Vrifier que le produit n'existe pas dj\r\n        require(bytes(produits[_id].id).length == 0, \"Ce produit existe deja\");\r\n        \r\n        // Crer et stocker le nouveau produit\r\n        produits[_id] = Produit({\r\n            id: _id,\r\n            nom: _nom,\r\n            idProducteur: _idProducteur,\r\n            region: _region,\r\n            dateRecolte: block.timestamp,\r\n            estBio: _estBio\r\n        });\r\n        \r\n        // Ajouter automatiquement l'tape de rcolte\r\n        Etape memory premiereEtape = Etape({\r\n            date: block.timestamp,\r\n            operation: \"Recolte\",\r\n            operateur: _idProducteur,\r\n            lieu: _region\r\n        });\r\n        \r\n        etapesProduit[_id].push(premiereEtape);\r\n        \r\n        emit ProduitEnregistre(_id, _nom, _idProducteur);\r\n    }\r\n    \r\n    /**\r\n     * @dev Ajoute une tape dans la chane d'approvisionnement d'un produit\r\n     * @param _idProduit Identifiant du produit\r\n     * @param _operation Type d'opration\r\n     * @param _operateur Qui a effectu l'opration\r\n     * @param _lieu Lieu de l'opration\r\n     */\r\n    function ajouterEtape(\r\n        string memory _idProduit, \r\n        string memory _operation, \r\n        string memory _operateur, \r\n        string memory _lieu\r\n    ) public {\r\n        // Vrifier que le produit existe\r\n        require(bytes(produits[_idProduit].id).length > 0, \"Produit inexistant\");\r\n        \r\n        // Crer et stocker la nouvelle tape\r\n        Etape memory nouvelleEtape = Etape({\r\n            date: block.timestamp,\r\n            operation: _operation,\r\n            operateur: _operateur,\r\n            lieu: _lieu\r\n        });\r\n        \r\n        etapesProduit[_idProduit].push(nouvelleEtape);\r\n        \r\n        emit EtapeAjoutee(_idProduit, _operation);\r\n    }\r\n    \r\n    /**\r\n     * @dev Rcupre les informations d'un producteur\r\n     * @param _id Identifiant du producteur\r\n     * @return Les dtails du producteur\r\n     */\r\n    function obtenirProducteur(string memory _id) public view returns (Producteur memory) {\r\n        require(bytes(producteurs[_id].id).length > 0, \"Producteur inexistant\");\r\n        return producteurs[_id];\r\n    }\r\n    \r\n    /**\r\n     * @dev Rcupre les informations d'un produit\r\n     * @param _id Identifiant du produit\r\n     * @return Les dtails du produit\r\n     */\r\n    function obtenirProduit(string memory _id) public view returns (Produit memory) {\r\n        require(bytes(produits[_id].id).length > 0, \"Produit inexistant\");\r\n        return produits[_id];\r\n    }\r\n    \r\n    /**\r\n     * @dev Rcupre le nombre d'tapes pour un produit\r\n     * @param _idProduit Identifiant du produit\r\n     * @return Le nombre d'tapes\r\n     */\r\n    function nombreEtapes(string memory _idProduit) public view returns (uint) {\r\n        return etapesProduit[_idProduit].length;\r\n    }\r\n    \r\n    /**\r\n     * @dev Rcupre une tape spcifique d'un produit\r\n     * @param _idProduit Identifiant du produit\r\n     * @param _index Index de l'tape\r\n     * @return Les dtails de l'tape\r\n     */\r\n    function obtenirEtape(string memory _idProduit, uint _index) public view returns (Etape memory) {\r\n        require(_index < etapesProduit[_idProduit].length, \"Etape inexistante\");\r\n        return etapesProduit[_idProduit][_index];\r\n    }\r\n    \r\n    /**\r\n     * @dev Vrifie si un produit est authentique et retrace son parcours\r\n     * @param _idProduit Identifiant du produit\r\n     * @return estAuthentique Authentification du produit\r\n     * @return producteur Informations sur le producteur\r\n     * @return nombreEtapesTotal Nombre total d'tapes enregistres\r\n     */\r\n    function verifierAuthenticiteProduit(string memory _idProduit) public view \r\n    returns (bool estAuthentique, Producteur memory producteur, uint nombreEtapesTotal) {\r\n        // Vrifier que le produit existe\r\n        if (bytes(produits[_idProduit].id).length == 0) {\r\n            return (false, Producteur(\"\", \"\", \"\", false), 0);\r\n        }\r\n        \r\n        // Rcuprer les informations du producteur\r\n        string memory idProducteur = produits[_idProduit].idProducteur;\r\n        Producteur memory producteurInfo = producteurs[idProducteur];\r\n        \r\n        // Vrifier si le producteur est vrifi\r\n        if (!producteurInfo.estVerifie) {\r\n            return (false, producteurInfo, etapesProduit[_idProduit].length);\r\n        }\r\n        \r\n        return (true, producteurInfo, etapesProduit[_idProduit].length);\r\n    }\r\n}",
  "sourcePath": "C:\\Users\\lenovo\\Desktop\\produit agricol\\tracabilite_agricole_maroc\\contracts\\TracabiliteAgricoleMaroc.sol",
  "compiler": {
    "name": "solc",
    "version": "0.8.0+commit.c7dfd78e.Emscripten.clang"
  },
  "schemaVersion": "3.4.16",
  "updatedAt": "2025-05-14T18:36:12.653Z",
  "networkType": "ethereum",
  "devdoc": {
    "details": "Systme simplifi de traabilit des produits agricoles marocains",
    "kind": "dev",
    "methods": {
      "ajouterEtape(string,string,string,string)": {
        "details": "Ajoute une tape dans la chane d'approvisionnement d'un produit",
        "params": {
          "_idProduit": "Identifiant du produit",
          "_lieu": "Lieu de l'opration",
          "_operateur": "Qui a effectu l'opration",
          "_operation": "Type d'opration"
        }
      },
      "ajouterProducteur(string,string,string)": {
        "details": "Ajoute un nouveau producteur au systme",
        "params": {
          "_id": "Identifiant du producteur",
          "_nom": "Nom du producteur",
          "_region": "Rgion d'origine"
        }
      },
      "enregistrerProduit(string,string,string,string,bool)": {
        "details": "Enregistre un nouveau produit",
        "params": {
          "_estBio": "Si le produit est biologique",
          "_id": "Identifiant du produit",
          "_idProducteur": "ID du producteur",
          "_nom": "Nom du produit",
          "_region": "Rgion de production"
        }
      },
      "nombreEtapes(string)": {
        "details": "Rcupre le nombre d'tapes pour un produit",
        "params": {
          "_idProduit": "Identifiant du produit"
        },
        "returns": {
          "_0": "Le nombre d'tapes"
        }
      },
      "obtenirEtape(string,uint256)": {
        "details": "Rcupre une tape spcifique d'un produit",
        "params": {
          "_idProduit": "Identifiant du produit",
          "_index": "Index de l'tape"
        },
        "returns": {
          "_0": "Les dtails de l'tape"
        }
      },
      "obtenirProducteur(string)": {
        "details": "Rcupre les informations d'un producteur",
        "params": {
          "_id": "Identifiant du producteur"
        },
        "returns": {
          "_0": "Les dtails du producteur"
        }
      },
      "obtenirProduit(string)": {
        "details": "Rcupre les informations d'un produit",
        "params": {
          "_id": "Identifiant du produit"
        },
        "returns": {
          "_0": "Les dtails du produit"
        }
      },
      "verifierAuthenticiteProduit(string)": {
        "details": "Vrifie si un produit est authentique et retrace son parcours",
        "params": {
          "_idProduit": "Identifiant du produit"
        },
        "returns": {
          "estAuthentique": "Authentification du produit",
          "nombreEtapesTotal": "Nombre total d'tapes enregistres",
          "producteur": "Informations sur le producteur"
        }
      },
      "verifierProducteur(string)": {
        "details": "Vrifie un producteur (rserv au propritaire)",
        "params": {
          "_id": "Identifiant du producteur"
        }
      }
    },
    "title": "TracabiliteAgricoleMaroc",
    "version": 1
  },
  "userdoc": {
    "kind": "user",
    "methods": {},
    "version": 1
  }
}